{
  "contractName": "Cetification",
  "abi": [
    {
      "constant": true,
      "inputs": [],
      "name": "authorsCount",
      "outputs": [
        {
          "name": "",
          "type": "uint256"
        }
      ],
      "payable": false,
      "stateMutability": "view",
      "type": "function"
    },
    {
      "constant": true,
      "inputs": [
        {
          "name": "",
          "type": "uint256"
        }
      ],
      "name": "authors",
      "outputs": [
        {
          "name": "id",
          "type": "string"
        },
        {
          "name": "name",
          "type": "string"
        },
        {
          "name": "sign",
          "type": "string"
        },
        {
          "name": "status",
          "type": "string"
        }
      ],
      "payable": false,
      "stateMutability": "view",
      "type": "function"
    },
    {
      "constant": true,
      "inputs": [
        {
          "name": "",
          "type": "uint256"
        }
      ],
      "name": "certificates",
      "outputs": [
        {
          "name": "code",
          "type": "bytes32"
        },
        {
          "name": "title",
          "type": "bytes32"
        },
        {
          "name": "studentName",
          "type": "bytes32"
        },
        {
          "name": "dataOfBirth",
          "type": "bytes32"
        },
        {
          "name": "yearOfGraduation",
          "type": "uint256"
        },
        {
          "name": "degreeClassification",
          "type": "bytes32"
        },
        {
          "name": "modeOfStudy",
          "type": "bytes32"
        },
        {
          "name": "date",
          "type": "bytes32"
        },
        {
          "name": "author",
          "type": "bytes32"
        },
        {
          "name": "updateBy",
          "type": "uint256"
        },
        {
          "name": "status",
          "type": "uint256"
        },
        {
          "name": "timeUpdate",
          "type": "bytes32"
        }
      ],
      "payable": false,
      "stateMutability": "view",
      "type": "function"
    },
    {
      "constant": true,
      "inputs": [],
      "name": "certificatesCount",
      "outputs": [
        {
          "name": "",
          "type": "uint256"
        }
      ],
      "payable": false,
      "stateMutability": "view",
      "type": "function"
    },
    {
      "inputs": [],
      "payable": false,
      "stateMutability": "nonpayable",
      "type": "constructor"
    },
    {
      "anonymous": false,
      "inputs": [
        {
          "indexed": false,
          "name": "_code",
          "type": "bytes32"
        },
        {
          "indexed": false,
          "name": "_title",
          "type": "bytes32"
        },
        {
          "indexed": false,
          "name": "_studentName",
          "type": "bytes32"
        },
        {
          "indexed": false,
          "name": "_dataOfBirth",
          "type": "bytes32"
        },
        {
          "indexed": false,
          "name": "_yearOfGraduation",
          "type": "uint256"
        },
        {
          "indexed": false,
          "name": "_degreeClassification",
          "type": "bytes32"
        },
        {
          "indexed": false,
          "name": "_modeOfStudy",
          "type": "bytes32"
        },
        {
          "indexed": false,
          "name": "_date",
          "type": "bytes32"
        },
        {
          "indexed": false,
          "name": "_author",
          "type": "bytes32"
        },
        {
          "indexed": false,
          "name": "_updateBy",
          "type": "uint256"
        },
        {
          "indexed": false,
          "name": "_status",
          "type": "uint256"
        },
        {
          "indexed": false,
          "name": "_timeUpdate",
          "type": "bytes32"
        }
      ],
      "name": "eventUpdateCertificate",
      "type": "event"
    },
    {
      "constant": false,
      "inputs": [
        {
          "name": "_id",
          "type": "string"
        },
        {
          "name": "_name",
          "type": "string"
        },
        {
          "name": "_sign",
          "type": "string"
        }
      ],
      "name": "addAuthor",
      "outputs": [
        {
          "name": "",
          "type": "bool"
        }
      ],
      "payable": false,
      "stateMutability": "nonpayable",
      "type": "function"
    },
    {
      "constant": false,
      "inputs": [
        {
          "name": "index",
          "type": "uint256"
        },
        {
          "name": "status",
          "type": "string"
        }
      ],
      "name": "updateStatusAuthor",
      "outputs": [
        {
          "name": "",
          "type": "bool"
        }
      ],
      "payable": false,
      "stateMutability": "nonpayable",
      "type": "function"
    },
    {
      "constant": false,
      "inputs": [
        {
          "name": "code",
          "type": "bytes32"
        },
        {
          "name": "title",
          "type": "bytes32"
        },
        {
          "name": "studentName",
          "type": "bytes32"
        },
        {
          "name": "dataOfBirth",
          "type": "bytes32"
        },
        {
          "name": "yearOfGraduation",
          "type": "uint256"
        },
        {
          "name": "degreeClassification",
          "type": "bytes32"
        },
        {
          "name": "modeOfStudy",
          "type": "bytes32"
        },
        {
          "name": "date",
          "type": "bytes32"
        },
        {
          "name": "author",
          "type": "bytes32"
        },
        {
          "name": "updateBy",
          "type": "uint256"
        },
        {
          "name": "timeUpdate",
          "type": "bytes32"
        }
      ],
      "name": "addCertificate",
      "outputs": [],
      "payable": false,
      "stateMutability": "nonpayable",
      "type": "function"
    },
    {
      "constant": false,
      "inputs": [
        {
          "name": "index",
          "type": "uint256"
        },
        {
          "name": "title",
          "type": "bytes32"
        },
        {
          "name": "studentName",
          "type": "bytes32"
        },
        {
          "name": "dataOfBirth",
          "type": "bytes32"
        },
        {
          "name": "yearOfGraduation",
          "type": "uint256"
        },
        {
          "name": "degreeClassification",
          "type": "bytes32"
        },
        {
          "name": "modeOfStudy",
          "type": "bytes32"
        },
        {
          "name": "date",
          "type": "bytes32"
        },
        {
          "name": "author",
          "type": "bytes32"
        },
        {
          "name": "updateBy",
          "type": "uint256"
        },
        {
          "name": "status",
          "type": "uint256"
        },
        {
          "name": "timeUpdate",
          "type": "bytes32"
        }
      ],
      "name": "updateCertificate",
      "outputs": [],
      "payable": false,
      "stateMutability": "nonpayable",
      "type": "function"
    }
  ],
  "bytecode": "0x60806040523480156200001157600080fd5b50620000cd6040805190810160405280600581526020017f47563030310000000000000000000000000000000000000000000000000000008152506040805190810160405280600581526020017f6861696e760000000000000000000000000000000000000000000000000000008152506040805190810160405280601b81526020017f3078303030303030303030303131323132313231323132313231320000000000815250620000d4640100000000026401000000009004565b506200028b565b600080600081548092919060010191905055506080604051908101604052808581526020018481526020018381526020016040805190810160405280600181526020017f30000000000000000000000000000000000000000000000000000000000000008152508152506003600080548152602001908152602001600020600082015181600001908051906020019062000170929190620001dc565b5060208201518160010190805190602001906200018f929190620001dc565b506040820151816002019080519060200190620001ae929190620001dc565b506060820151816003019080519060200190620001cd929190620001dc565b50905050600190509392505050565b828054600181600116156101000203166002900490600052602060002090601f016020900481019282601f106200021f57805160ff191683800117855562000250565b8280016001018555821562000250579182015b828111156200024f57825182559160200191906001019062000232565b5b5090506200025f919062000263565b5090565b6200028891905b80821115620002845760008160009055506001016200026a565b5090565b90565b6110ae806200029b6000396000f30060806040526004361061008e576000357c0100000000000000000000000000000000000000000000000000000000900463ffffffff16806325ca819f1461009357806331f9df53146100be5780633db804da146101cb57806350742d1e146103b55780635e51dd6914610440578063663b3e22146104fb578063746e25d2146105d1578063b34b464814610686575b600080fd5b34801561009f57600080fd5b506100a86106b1565b6040518082815260200191505060405180910390f35b3480156100ca57600080fd5b506101b1600480360381019080803590602001908201803590602001908080601f0160208091040260200160405190810160405280939291908181526020018383808284378201915050505050509192919290803590602001908201803590602001908080601f0160208091040260200160405190810160405280939291908181526020018383808284378201915050505050509192919290803590602001908201803590602001908080601f01602080910402602001604051908101604052809392919081815260200183838082843782019150505050505091929192905050506106b7565b604051808215151515815260200191505060405180910390f35b3480156101d757600080fd5b506101f6600480360381019080803590602001909291905050506107b7565b6040518080602001806020018060200180602001858103855289818151815260200191508051906020019080838360005b83811015610242578082015181840152602081019050610227565b50505050905090810190601f16801561026f5780820380516001836020036101000a031916815260200191505b50858103845288818151815260200191508051906020019080838360005b838110156102a857808201518184015260208101905061028d565b50505050905090810190601f1680156102d55780820380516001836020036101000a031916815260200191505b50858103835287818151815260200191508051906020019080838360005b8381101561030e5780820151818401526020810190506102f3565b50505050905090810190601f16801561033b5780820380516001836020036101000a031916815260200191505b50858103825286818151815260200191508051906020019080838360005b83811015610374578082015181840152602081019050610359565b50505050905090810190601f1680156103a15780820380516001836020036101000a031916815260200191505b509850505050505050505060405180910390f35b3480156103c157600080fd5b5061042660048036038101908080359060200190929190803590602001908201803590602001908080601f0160208091040260200160405190810160405280939291908181526020018383808284378201915050505050509192919290505050610a47565b604051808215151515815260200191505060405180910390f35b34801561044c57600080fd5b506104f96004803603810190808035906020019092919080356000191690602001909291908035600019169060200190929190803560001916906020019092919080359060200190929190803560001916906020019092919080356000191690602001909291908035600019169060200190929190803560001916906020019092919080359060200190929190803590602001909291908035600019169060200190929190505050610a7a565b005b34801561050757600080fd5b5061052660048036038101908080359060200190929190505050610cbe565b604051808d600019166000191681526020018c600019166000191681526020018b600019166000191681526020018a60001916600019168152602001898152602001886000191660001916815260200187600019166000191681526020018660001916600019168152602001856000191660001916815260200184815260200183815260200182600019166000191681526020019c5050505050505050505050505060405180910390f35b3480156105dd57600080fd5b506106846004803603810190808035600019169060200190929190803560001916906020019092919080356000191690602001909291908035600019169060200190929190803590602001909291908035600019169060200190929190803560001916906020019092919080356000191690602001909291908035600019169060200190929190803590602001909291908035600019169060200190929190505050610d1e565b005b34801561069257600080fd5b5061069b610f57565b6040518082815260200191505060405180910390f35b60005481565b600080600081548092919060010191905055506080604051908101604052808581526020018481526020018381526020016040805190810160405280600181526020017f300000000000000000000000000000000000000000000000000000000000000081525081525060036000805481526020019081526020016000206000820151816000019080519060200190610751929190610f5d565b50602082015181600101908051906020019061076e929190610f5d565b50604082015181600201908051906020019061078b929190610f5d565b5060608201518160030190805190602001906107a8929190610f5d565b50905050600190509392505050565b6003602052806000526040600020600091509050806000018054600181600116156101000203166002900480601f0160208091040260200160405190810160405280929190818152602001828054600181600116156101000203166002900480156108635780601f1061083857610100808354040283529160200191610863565b820191906000526020600020905b81548152906001019060200180831161084657829003601f168201915b505050505090806001018054600181600116156101000203166002900480601f0160208091040260200160405190810160405280929190818152602001828054600181600116156101000203166002900480156109015780601f106108d657610100808354040283529160200191610901565b820191906000526020600020905b8154815290600101906020018083116108e457829003601f168201915b505050505090806002018054600181600116156101000203166002900480601f01602080910402602001604051908101604052809291908181526020018280546001816001161561010002031660029004801561099f5780601f106109745761010080835404028352916020019161099f565b820191906000526020600020905b81548152906001019060200180831161098257829003601f168201915b505050505090806003018054600181600116156101000203166002900480601f016020809104026020016040519081016040528092919081815260200182805460018160011615610100020316600290048015610a3d5780601f10610a1257610100808354040283529160200191610a3d565b820191906000526020600020905b815481529060010190602001808311610a2057829003601f168201915b5050505050905084565b600081600360008581526020019081526020016000206003019080519060200190610a73929190610fdd565b5092915050565b8a600260008e8152602001908152602001600020600101816000191690555089600260008e8152602001908152602001600020600201816000191690555088600260008e8152602001908152602001600020600301816000191690555087600260008e81526020019081526020016000206004018190555086600260008e8152602001908152602001600020600501816000191690555085600260008e8152602001908152602001600020600601816000191690555084600260008e8152602001908152602001600020600701816000191690555083600260008e8152602001908152602001600020600801816000191690555082600260008e81526020019081526020016000206009018190555081600260008e8152602001908152602001600020600a018190555080600260008e8152602001908152602001600020600b0181600019169055507f0b92e595e3d18cc046c06f6c174d1e270b73e949c6345fb03cf17584cefaa810600260008e8152602001908152602001600020600001548c8c8c8c8c8c8c8c8c8c8c604051808d600019166000191681526020018c600019166000191681526020018b600019166000191681526020018a60001916600019168152602001898152602001886000191660001916815260200187600019166000191681526020018660001916600019168152602001856000191660001916815260200184815260200183815260200182600019166000191681526020019c5050505050505050505050505060405180910390a1505050505050505050505050565b600260205280600052604060002060009150905080600001549080600101549080600201549080600301549080600401549080600501549080600601549080600701549080600801549080600901549080600a01549080600b015490508c565b600160008154809291906001019190505550610180604051908101604052808c6000191681526020018b6000191681526020018a6000191681526020018960001916815260200188815260200187600019168152602001866000191681526020018560001916815260200184600019168152602001838152602001600181526020018260001916815250600260006001548152602001908152602001600020600082015181600001906000191690556020820151816001019060001916905560408201518160020190600019169055606082015181600301906000191690556080820151816004015560a0820151816005019060001916905560c0820151816006019060001916905560e082015181600701906000191690556101008201518160080190600019169055610120820151816009015561014082015181600a015561016082015181600b01906000191690559050507f0b92e595e3d18cc046c06f6c174d1e270b73e949c6345fb03cf17584cefaa8108b8b8b8b8b8b8b8b8b8b60018c604051808d600019166000191681526020018c600019166000191681526020018b600019166000191681526020018a60001916600019168152602001898152602001886000191660001916815260200187600019166000191681526020018660001916600019168152602001856000191660001916815260200184815260200183815260200182600019166000191681526020019c5050505050505050505050505060405180910390a15050505050505050505050565b60015481565b828054600181600116156101000203166002900490600052602060002090601f016020900481019282601f10610f9e57805160ff1916838001178555610fcc565b82800160010185558215610fcc579182015b82811115610fcb578251825591602001919060010190610fb0565b5b509050610fd9919061105d565b5090565b828054600181600116156101000203166002900490600052602060002090601f016020900481019282601f1061101e57805160ff191683800117855561104c565b8280016001018555821561104c579182015b8281111561104b578251825591602001919060010190611030565b5b509050611059919061105d565b5090565b61107f91905b8082111561107b576000816000905550600101611063565b5090565b905600a165627a7a72305820f82bcfe0762d6edd0983976d2470342611aaf702e033583905f0887257e23a990029",
  "source": "pragma solidity ^0.4.24;\n\ncontract Cetification {\n    \n    // Cấu trúc của một bằng tốt nghiệp\n    struct Certificate {\n        bytes32 code;\n        bytes32 title; // Tên bằng tốt nghiệp\n        bytes32 studentName; // Tên sinh viên\n        bytes32 dataOfBirth; // Ngày tháng năm sinh\n        uint yearOfGraduation; // Năng tốt nghiệp\n        bytes32 degreeClassification; // Loại bằng\n        bytes32 modeOfStudy; // Hình thức đào tạo\n        bytes32 date; // Ngày phát hành\n        bytes32 author; // Người cấp bằng\n        uint updateBy; // Id của người sửa dữ liệu\n        uint status; // Trang thai bang,\n        bytes32 timeUpdate;\n    }\n\n    // 0: Active, -1: Delete\n    struct Author {\n        string id;\n        string name;\n        string sign;\n        string status;\n    }\n\n    // Lưu trữ số lượng người có quyền phát hành bằng tốt nghiệp\n    uint public authorsCount;\n\n    // Lưu trữ số lượng cetification\n    uint public certificatesCount;\n\n    // Mảng các bằng tốt nghiệp\n    mapping (uint => Certificate) public certificates;\n\n    // Mảng những người được cấp quyền để phát hành các chứng chỉ\n    mapping (uint => Author) public authors;\n\n    // Contructor\n    constructor () public {\n        addAuthor(\"GV001\", \"hainv\", \"0x0000000000112121212121212\");\n    }\n\n    event eventUpdateCertificate(\n        bytes32 _code, \n        bytes32 _title, \n        bytes32 _studentName, \n        bytes32 _dataOfBirth, \n        uint _yearOfGraduation, \n        bytes32 _degreeClassification, \n        bytes32 _modeOfStudy,\n        bytes32 _date, \n        bytes32 _author, \n        uint _updateBy, \n        uint _status,\n        bytes32 _timeUpdate\n    );\n\n    // Add author\n    function addAuthor(string _id,string _name, string _sign) public returns (bool) {\n        authorsCount ++;\n        authors[authorsCount] = Author(_id, _name, _sign,\"0\");\n        return true;\n    }\n\n    // Delete author\n    function updateStatusAuthor(uint index,string status) public returns (bool){\n        authors[index].status = status;\n    }\n\n    // Add cetificates\n    function addCertificate(bytes32 code, bytes32 title, \n        bytes32 studentName, bytes32 dataOfBirth ,\n        uint yearOfGraduation, bytes32 degreeClassification, \n        bytes32 modeOfStudy, bytes32 date, \n        bytes32 author, uint updateBy,bytes32 timeUpdate) public\n    {\n        certificatesCount ++;\n        certificates[certificatesCount] = Certificate(code, title, studentName, dataOfBirth , yearOfGraduation, degreeClassification, modeOfStudy, date, author, updateBy,1,timeUpdate);\n        emit eventUpdateCertificate(code, title, studentName, dataOfBirth , yearOfGraduation, degreeClassification, modeOfStudy, date, author, updateBy,1,timeUpdate);\n    }\n\n    // Update cetificates\n     function updateCertificate(uint index, bytes32 title, \n        bytes32 studentName, bytes32 dataOfBirth ,\n        uint yearOfGraduation, bytes32 degreeClassification, \n        bytes32 modeOfStudy, bytes32 date, \n        bytes32 author, uint updateBy, uint status,bytes32 timeUpdate) public\n    {\n        certificates[index].title = title;\n        certificates[index].studentName = studentName;\n        certificates[index].dataOfBirth = dataOfBirth;\n        certificates[index].yearOfGraduation = yearOfGraduation;\n        certificates[index].degreeClassification = degreeClassification;\n        certificates[index].modeOfStudy = modeOfStudy;\n        certificates[index].date = date;\n        certificates[index].author = author;\n        certificates[index].updateBy = updateBy;\n        certificates[index].status = status;\n        certificates[index].timeUpdate = timeUpdate;\n        emit eventUpdateCertificate(certificates[index].code, title, studentName, dataOfBirth , yearOfGraduation, degreeClassification, modeOfStudy, date, author, updateBy,status,timeUpdate);\n    }\n}",
  "sourcePath": "/home/rombk/Project/DoAn/Do-An/source/smart-contracts/contracts/Cetification.sol",
  "compiler": {
    "name": "solc",
    "version": "0.4.24+commit.e67f0147.Emscripten.clang"
  },
  "schemaVersion": "2.0.1",
  "updatedAt": "2018-10-12T16:10:26.194Z"
}