{
  "contractName": "Cetification",
  "abi": [
    {
      "constant": true,
      "inputs": [],
      "name": "authorsCount",
      "outputs": [
        {
          "name": "",
          "type": "uint256"
        }
      ],
      "payable": false,
      "stateMutability": "view",
      "type": "function"
    },
    {
      "constant": true,
      "inputs": [
        {
          "name": "",
          "type": "uint256"
        }
      ],
      "name": "authors",
      "outputs": [
        {
          "name": "id",
          "type": "string"
        },
        {
          "name": "name",
          "type": "string"
        },
        {
          "name": "sign",
          "type": "string"
        },
        {
          "name": "status",
          "type": "string"
        }
      ],
      "payable": false,
      "stateMutability": "view",
      "type": "function"
    },
    {
      "constant": true,
      "inputs": [
        {
          "name": "",
          "type": "uint256"
        }
      ],
      "name": "certificates",
      "outputs": [
        {
          "name": "id",
          "type": "bytes32"
        },
        {
          "name": "title",
          "type": "bytes32"
        },
        {
          "name": "studentName",
          "type": "bytes32"
        },
        {
          "name": "dataOfBirth",
          "type": "bytes32"
        },
        {
          "name": "yearOfGraduation",
          "type": "uint256"
        },
        {
          "name": "degreeClassification",
          "type": "bytes32"
        },
        {
          "name": "modeOfStudy",
          "type": "bytes32"
        },
        {
          "name": "timeCreate",
          "type": "bytes32"
        },
        {
          "name": "author",
          "type": "bytes32"
        },
        {
          "name": "authorId",
          "type": "uint256"
        }
      ],
      "payable": false,
      "stateMutability": "view",
      "type": "function"
    },
    {
      "constant": true,
      "inputs": [],
      "name": "certificatesCount",
      "outputs": [
        {
          "name": "",
          "type": "uint256"
        }
      ],
      "payable": false,
      "stateMutability": "view",
      "type": "function"
    },
    {
      "inputs": [],
      "payable": false,
      "stateMutability": "nonpayable",
      "type": "constructor"
    },
    {
      "constant": false,
      "inputs": [
        {
          "name": "_id",
          "type": "string"
        },
        {
          "name": "_name",
          "type": "string"
        },
        {
          "name": "_sign",
          "type": "string"
        }
      ],
      "name": "addAuthor",
      "outputs": [
        {
          "name": "",
          "type": "bool"
        }
      ],
      "payable": false,
      "stateMutability": "nonpayable",
      "type": "function"
    },
    {
      "constant": false,
      "inputs": [
        {
          "name": "id",
          "type": "uint256"
        },
        {
          "name": "status",
          "type": "string"
        }
      ],
      "name": "updateStatusAuthor",
      "outputs": [
        {
          "name": "",
          "type": "bool"
        }
      ],
      "payable": false,
      "stateMutability": "nonpayable",
      "type": "function"
    },
    {
      "constant": false,
      "inputs": [
        {
          "name": "id",
          "type": "bytes32"
        },
        {
          "name": "title",
          "type": "bytes32"
        },
        {
          "name": "studentName",
          "type": "bytes32"
        },
        {
          "name": "dataOfBirth",
          "type": "bytes32"
        },
        {
          "name": "yearOfGraduation",
          "type": "uint256"
        },
        {
          "name": "degreeClassification",
          "type": "bytes32"
        },
        {
          "name": "modeOfStudy",
          "type": "bytes32"
        },
        {
          "name": "timeCreate",
          "type": "bytes32"
        },
        {
          "name": "author",
          "type": "bytes32"
        },
        {
          "name": "authorId",
          "type": "uint256"
        }
      ],
      "name": "editCertificate",
      "outputs": [],
      "payable": false,
      "stateMutability": "nonpayable",
      "type": "function"
    }
  ],
  "bytecode": "0x60806040523480156200001157600080fd5b50620000cd6040805190810160405280600581526020017f47563030310000000000000000000000000000000000000000000000000000008152506040805190810160405280600581526020017f6861696e760000000000000000000000000000000000000000000000000000008152506040805190810160405280601b81526020017f3078303030303030303030303131323132313231323132313231320000000000815250620000d4640100000000026401000000009004565b506200028b565b600080600081548092919060010191905055506080604051908101604052808581526020018481526020018381526020016040805190810160405280600181526020017f30000000000000000000000000000000000000000000000000000000000000008152508152506003600080548152602001908152602001600020600082015181600001908051906020019062000170929190620001dc565b5060208201518160010190805190602001906200018f929190620001dc565b506040820151816002019080519060200190620001ae929190620001dc565b506060820151816003019080519060200190620001cd929190620001dc565b50905050600190509392505050565b828054600181600116156101000203166002900490600052602060002090601f016020900481019282601f106200021f57805160ff191683800117855562000250565b8280016001018555821562000250579182015b828111156200024f57825182559160200191906001019062000232565b5b5090506200025f919062000263565b5090565b6200028891905b80821115620002845760008160009055506001016200026a565b5090565b90565b610c6e806200029b6000396000f300608060405260043610610083576000357c0100000000000000000000000000000000000000000000000000000000900463ffffffff16806325ca819f1461008857806331f9df53146100b35780633db804da146101c057806350742d1e146103aa578063663b3e221461043557806378e787c0146104f5578063b34b46481461059c575b600080fd5b34801561009457600080fd5b5061009d6105c7565b6040518082815260200191505060405180910390f35b3480156100bf57600080fd5b506101a6600480360381019080803590602001908201803590602001908080601f0160208091040260200160405190810160405280939291908181526020018383808284378201915050505050509192919290803590602001908201803590602001908080601f0160208091040260200160405190810160405280939291908181526020018383808284378201915050505050509192919290803590602001908201803590602001908080601f01602080910402602001604051908101604052809392919081815260200183838082843782019150505050505091929192905050506105cd565b604051808215151515815260200191505060405180910390f35b3480156101cc57600080fd5b506101eb600480360381019080803590602001909291905050506106cd565b6040518080602001806020018060200180602001858103855289818151815260200191508051906020019080838360005b8381101561023757808201518184015260208101905061021c565b50505050905090810190601f1680156102645780820380516001836020036101000a031916815260200191505b50858103845288818151815260200191508051906020019080838360005b8381101561029d578082015181840152602081019050610282565b50505050905090810190601f1680156102ca5780820380516001836020036101000a031916815260200191505b50858103835287818151815260200191508051906020019080838360005b838110156103035780820151818401526020810190506102e8565b50505050905090810190601f1680156103305780820380516001836020036101000a031916815260200191505b50858103825286818151815260200191508051906020019080838360005b8381101561036957808201518184015260208101905061034e565b50505050905090810190601f1680156103965780820380516001836020036101000a031916815260200191505b509850505050505050505060405180910390f35b3480156103b657600080fd5b5061041b60048036038101908080359060200190929190803590602001908201803590602001908080601f016020809104026020016040519081016040528093929190818152602001838380828437820191505050505050919291929050505061095d565b604051808215151515815260200191505060405180910390f35b34801561044157600080fd5b5061046060048036038101908080359060200190929190505050610990565b604051808b600019166000191681526020018a600019166000191681526020018960001916600019168152602001886000191660001916815260200187815260200186600019166000191681526020018560001916600019168152602001846000191660001916815260200183600019166000191681526020018281526020019a505050505050505050505060405180910390f35b34801561050157600080fd5b5061059a6004803603810190808035600019169060200190929190803560001916906020019092919080356000191690602001909291908035600019169060200190929190803590602001909291908035600019169060200190929190803560001916906020019092919080356000191690602001909291908035600019169060200190929190803590602001909291905050506109e4565b005b3480156105a857600080fd5b506105b1610b17565b6040518082815260200191505060405180910390f35b60005481565b600080600081548092919060010191905055506080604051908101604052808581526020018481526020018381526020016040805190810160405280600181526020017f300000000000000000000000000000000000000000000000000000000000000081525081525060036000805481526020019081526020016000206000820151816000019080519060200190610667929190610b1d565b506020820151816001019080519060200190610684929190610b1d565b5060408201518160020190805190602001906106a1929190610b1d565b5060608201518160030190805190602001906106be929190610b1d565b50905050600190509392505050565b6003602052806000526040600020600091509050806000018054600181600116156101000203166002900480601f0160208091040260200160405190810160405280929190818152602001828054600181600116156101000203166002900480156107795780601f1061074e57610100808354040283529160200191610779565b820191906000526020600020905b81548152906001019060200180831161075c57829003601f168201915b505050505090806001018054600181600116156101000203166002900480601f0160208091040260200160405190810160405280929190818152602001828054600181600116156101000203166002900480156108175780601f106107ec57610100808354040283529160200191610817565b820191906000526020600020905b8154815290600101906020018083116107fa57829003601f168201915b505050505090806002018054600181600116156101000203166002900480601f0160208091040260200160405190810160405280929190818152602001828054600181600116156101000203166002900480156108b55780601f1061088a576101008083540402835291602001916108b5565b820191906000526020600020905b81548152906001019060200180831161089857829003601f168201915b505050505090806003018054600181600116156101000203166002900480601f0160208091040260200160405190810160405280929190818152602001828054600181600116156101000203166002900480156109535780601f1061092857610100808354040283529160200191610953565b820191906000526020600020905b81548152906001019060200180831161093657829003601f168201915b5050505050905084565b600081600360008581526020019081526020016000206003019080519060200190610989929190610b9d565b5092915050565b6002602052806000526040600020600091509050806000015490806001015490806002015490806003015490806004015490806005015490806006015490806007015490806008015490806009015490508a565b600160008154809291906001019190505550610140604051908101604052808b6000191681526020018a60001916815260200189600019168152602001886000191681526020018781526020018660001916815260200185600019168152602001846000191681526020018360001916815260200182815250600260006001548152602001908152602001600020600082015181600001906000191690556020820151816001019060001916905560408201518160020190600019169055606082015181600301906000191690556080820151816004015560a0820151816005019060001916905560c0820151816006019060001916905560e082015181600701906000191690556101008201518160080190600019169055610120820151816009015590505050505050505050505050565b60015481565b828054600181600116156101000203166002900490600052602060002090601f016020900481019282601f10610b5e57805160ff1916838001178555610b8c565b82800160010185558215610b8c579182015b82811115610b8b578251825591602001919060010190610b70565b5b509050610b999190610c1d565b5090565b828054600181600116156101000203166002900490600052602060002090601f016020900481019282601f10610bde57805160ff1916838001178555610c0c565b82800160010185558215610c0c579182015b82811115610c0b578251825591602001919060010190610bf0565b5b509050610c199190610c1d565b5090565b610c3f91905b80821115610c3b576000816000905550600101610c23565b5090565b905600a165627a7a72305820a458bcedbcdb3480f649fde21023b6a343a23a3a8519c5c3f9816f33a319ca770029",
  "source": "pragma solidity ^0.4.24;\n\ncontract Cetification {\n    \n    // Cấu trúc của một bằng tốt nghiệp\n    struct Certificate {\n        bytes32 id;\n        bytes32 title; // Tên bằng tốt nghiệp\n        bytes32 studentName; // Tên sinh viên\n        bytes32 dataOfBirth; // Ngày tháng năm sinh\n        uint yearOfGraduation; // Năng tốt nghiệp\n        bytes32 degreeClassification; // Loại bằng\n        bytes32 modeOfStudy; // Hình thức đào tạo\n        bytes32 timeCreate; // Ngày phát hành\n        bytes32 author; // Người cấp bằng\n        uint authorId; // Id của người sửa dữ liệu\n    }\n\n    // 0: Active, -1: Delete\n    struct Author {\n        string id;\n        string name;\n        string sign;\n        string status;\n    }\n\n    // Lưu trữ số lượng người có quyền phát hành bằng tốt nghiệp\n    uint public authorsCount;\n\n    // Lưu trữ số lượng cetification\n    uint public certificatesCount;\n\n    // Mảng các bằng tốt nghiệp\n    mapping (uint => Certificate) public certificates;\n\n    // Mảng những người được cấp quyền để phát hành các chứng chỉ\n    mapping (uint => Author) public authors;\n\n    // Contructor\n    constructor () public {\n        addAuthor(\"GV001\", \"hainv\", \"0x0000000000112121212121212\");\n    }\n\n    // Add author\n    function addAuthor(string _id,string _name, string _sign) public returns (bool) {\n        authorsCount ++;\n        authors[authorsCount] = Author(_id, _name, _sign,\"0\");\n        return true;\n    }\n\n    // Delete author\n    function updateStatusAuthor(uint id,string status) public returns (bool){\n        authors[id].status = status;\n    }\n\n    // Add cetificates\n    function editCertificate(bytes32 id, bytes32 title, \n        bytes32 studentName, bytes32 dataOfBirth ,\n        uint yearOfGraduation, bytes32 degreeClassification, \n        bytes32 modeOfStudy, bytes32 timeCreate, \n        bytes32 author, uint authorId) public\n    {\n        certificatesCount ++;\n        certificates[certificatesCount] = Certificate(id, title, studentName, dataOfBirth , yearOfGraduation, degreeClassification, modeOfStudy, timeCreate, author, authorId);\n    }\n\n\n    // // Vote\n    // function vote(uint _candidateId) public {\n    //     // require that they haven't voted before\n    //     require(!voters[msg.sender]);\n\n    //     // require a valid candidate\n    //     require(_candidateId > 0 && _candidateId <= candidatesCount);\n\n    //     voters[msg.sender] = true;\n\n    //     // update candidate vote count\n    //     candidates[_candidateId].voteCount ++;\n\n    //     // trigger voted event\n    //     // emit votedEvent(_candidateId);\n    // }\n}",
  "sourcePath": "/home/rombk/Project/DoAn/Do-An/source/smart-contracts/contracts/Cetification.sol",
  "compiler": {
    "name": "solc",
    "version": "0.4.24+commit.e67f0147.Emscripten.clang"
  },
  "schemaVersion": "2.0.1",
  "updatedAt": "2018-10-08T16:45:45.903Z"
}